{
  "contractName": "Elections",
  "abi": [
    {
      "inputs": [
        {
          "internalType": "string[]",
          "name": "candidateNames",
          "type": "string[]"
        }
      ],
      "stateMutability": "nonpayable",
      "type": "constructor"
    },
    {
      "anonymous": false,
      "inputs": [
        {
          "indexed": true,
          "internalType": "uint256",
          "name": "_candidateId",
          "type": "uint256"
        }
      ],
      "name": "votedEvent",
      "type": "event"
    },
    {
      "inputs": [
        {
          "internalType": "uint256",
          "name": "",
          "type": "uint256"
        }
      ],
      "name": "candidates",
      "outputs": [
        {
          "internalType": "uint256",
          "name": "id",
          "type": "uint256"
        },
        {
          "internalType": "string",
          "name": "name",
          "type": "string"
        },
        {
          "internalType": "uint256",
          "name": "voteCount",
          "type": "uint256"
        }
      ],
      "stateMutability": "view",
      "type": "function",
      "constant": true
    },
    {
      "inputs": [],
      "name": "candidatesCount",
      "outputs": [
        {
          "internalType": "uint256",
          "name": "",
          "type": "uint256"
        }
      ],
      "stateMutability": "view",
      "type": "function",
      "constant": true
    },
    {
      "inputs": [
        {
          "internalType": "uint256",
          "name": "",
          "type": "uint256"
        }
      ],
      "name": "defaultVoters",
      "outputs": [
        {
          "internalType": "address",
          "name": "",
          "type": "address"
        }
      ],
      "stateMutability": "view",
      "type": "function",
      "constant": true
    },
    {
      "inputs": [],
      "name": "owner",
      "outputs": [
        {
          "internalType": "address",
          "name": "",
          "type": "address"
        }
      ],
      "stateMutability": "view",
      "type": "function",
      "constant": true
    },
    {
      "inputs": [],
      "name": "startOfElection",
      "outputs": [
        {
          "internalType": "uint256",
          "name": "",
          "type": "uint256"
        }
      ],
      "stateMutability": "view",
      "type": "function",
      "constant": true
    },
    {
      "inputs": [
        {
          "internalType": "address",
          "name": "",
          "type": "address"
        }
      ],
      "name": "votersMap",
      "outputs": [
        {
          "internalType": "bool",
          "name": "eligibleToVote",
          "type": "bool"
        },
        {
          "internalType": "bool",
          "name": "voted",
          "type": "bool"
        },
        {
          "internalType": "uint256",
          "name": "votedCandidate",
          "type": "uint256"
        }
      ],
      "stateMutability": "view",
      "type": "function",
      "constant": true
    },
    {
      "inputs": [],
      "name": "winner",
      "outputs": [
        {
          "internalType": "uint256",
          "name": "id",
          "type": "uint256"
        },
        {
          "internalType": "string",
          "name": "name",
          "type": "string"
        },
        {
          "internalType": "uint256",
          "name": "voteCount",
          "type": "uint256"
        },
        {
          "internalType": "uint256",
          "name": "startOfElection",
          "type": "uint256"
        },
        {
          "internalType": "uint256",
          "name": "endOfElection",
          "type": "uint256"
        }
      ],
      "stateMutability": "view",
      "type": "function",
      "constant": true
    },
    {
      "inputs": [],
      "name": "showOwner",
      "outputs": [
        {
          "internalType": "address",
          "name": "",
          "type": "address"
        }
      ],
      "stateMutability": "view",
      "type": "function",
      "constant": true
    },
    {
      "inputs": [],
      "name": "showCandidateCounts",
      "outputs": [
        {
          "internalType": "uint256",
          "name": "",
          "type": "uint256"
        }
      ],
      "stateMutability": "view",
      "type": "function",
      "constant": true
    },
    {
      "inputs": [],
      "name": "showCandidateNames",
      "outputs": [
        {
          "internalType": "string[]",
          "name": "",
          "type": "string[]"
        }
      ],
      "stateMutability": "view",
      "type": "function",
      "constant": true
    },
    {
      "inputs": [
        {
          "internalType": "address",
          "name": "voter",
          "type": "address"
        }
      ],
      "name": "giveRightToVote",
      "outputs": [],
      "stateMutability": "nonpayable",
      "type": "function"
    },
    {
      "inputs": [
        {
          "internalType": "address",
          "name": "voter",
          "type": "address"
        }
      ],
      "name": "removeRightToVote",
      "outputs": [],
      "stateMutability": "nonpayable",
      "type": "function"
    },
    {
      "inputs": [
        {
          "internalType": "address",
          "name": "voter",
          "type": "address"
        }
      ],
      "name": "hasRightToVote",
      "outputs": [
        {
          "internalType": "bool",
          "name": "",
          "type": "bool"
        }
      ],
      "stateMutability": "view",
      "type": "function",
      "constant": true
    },
    {
      "inputs": [
        {
          "internalType": "uint256",
          "name": "proposal",
          "type": "uint256"
        }
      ],
      "name": "vote",
      "outputs": [],
      "stateMutability": "nonpayable",
      "type": "function"
    },
    {
      "inputs": [],
      "name": "endElection",
      "outputs": [],
      "stateMutability": "nonpayable",
      "type": "function"
    },
    {
      "inputs": [],
      "name": "getElectionStatus",
      "outputs": [
        {
          "internalType": "bool",
          "name": "",
          "type": "bool"
        }
      ],
      "stateMutability": "view",
      "type": "function",
      "constant": true
    },
    {
      "inputs": [],
      "name": "displayWinner",
      "outputs": [
        {
          "internalType": "string",
          "name": "winnerName_",
          "type": "string"
        },
        {
          "internalType": "uint256",
          "name": "winningVoteCount_",
          "type": "uint256"
        },
        {
          "internalType": "uint256",
          "name": "startOfElection_",
          "type": "uint256"
        },
        {
          "internalType": "uint256",
          "name": "endOfElection_",
          "type": "uint256"
        }
      ],
      "stateMutability": "view",
      "type": "function",
      "constant": true
    }
  ],
  "bytecode": "0x608060405260405180610120016040528073e2396bbdf71077684e5fbf051a6e431cc135e28a73ffffffffffffffffffffffffffffffffffffffff1673ffffffffffffffffffffffffffffffffffffffff1681526020017322fc4173d0ada02926138994d13d161113ee4a3973ffffffffffffffffffffffffffffffffffffffff1673ffffffffffffffffffffffffffffffffffffffff1681526020017355fe80891495223deba5e2603bb24facd6494a7273ffffffffffffffffffffffffffffffffffffffff1673ffffffffffffffffffffffffffffffffffffffff168152602001731f96b9704c0edb5c6490d93713bd62d2c9a967cd73ffffffffffffffffffffffffffffffffffffffff1673ffffffffffffffffffffffffffffffffffffffff16815260200173e1a1bdd16fcbef19f83db908eac052abe2db0ca973ffffffffffffffffffffffffffffffffffffffff1673ffffffffffffffffffffffffffffffffffffffff168152602001731b33c03d5f880d3cda8ba91a772a9e8e5dba36a073ffffffffffffffffffffffffffffffffffffffff1673ffffffffffffffffffffffffffffffffffffffff16815260200173f924e3eaa33965c47a116ca68ea93ca105385a3c73ffffffffffffffffffffffffffffffffffffffff1673ffffffffffffffffffffffffffffffffffffffff16815260200173d2afb069f61cf099bfd0dd9f8140ae18bab658c973ffffffffffffffffffffffffffffffffffffffff1673ffffffffffffffffffffffffffffffffffffffff16815260200173079d12076e79ba335da5d8999df747c5a1f09cac73ffffffffffffffffffffffffffffffffffffffff1673ffffffffffffffffffffffffffffffffffffffff1681525060009060096200029692919062000581565b50348015620002a457600080fd5b506040516200263f3803806200263f8339818101604052810190620002ca9190620008be565b33600760006101000a81548173ffffffffffffffffffffffffffffffffffffffff021916908373ffffffffffffffffffffffffffffffffffffffff1602179055506001600760146101000a81548160ff02191690831515021790555060005b8151811015620003f557600160405180606001604052808381526020018484815181106200035c576200035b6200090f565b5b6020026020010151815260200160008152509080600181540180825580915050600190039060005260206000209060030201600090919091909150600082015181600001556020820151816001019081620003b8919062000b89565b5060408201518160020155505060096000815480929190620003da9062000c9f565b91905055508080620003ec9062000c9f565b91505062000329565b50426008819055506200040d6200041460201b60201c565b5062000d95565b60005b6000805490508110156200048d57620004776000828154811062000440576200043f6200090f565b5b9060005260206000200160009054906101000a900473ffffffffffffffffffffffffffffffffffffffff166200049060201b60201c565b8080620004849062000c9f565b91505062000417565b50565b600760009054906101000a900473ffffffffffffffffffffffffffffffffffffffff1673ffffffffffffffffffffffffffffffffffffffff163373ffffffffffffffffffffffffffffffffffffffff161462000523576040517f08c379a00000000000000000000000000000000000000000000000000000000081526004016200051a9062000d73565b60405180910390fd5b6001600a60008373ffffffffffffffffffffffffffffffffffffffff1673ffffffffffffffffffffffffffffffffffffffff16815260200190815260200160002060000160006101000a81548160ff02191690831515021790555050565b828054828255906000526020600020908101928215620005fd579160200282015b82811115620005fc5782518260006101000a81548173ffffffffffffffffffffffffffffffffffffffff021916908373ffffffffffffffffffffffffffffffffffffffff16021790555091602001919060010190620005a2565b5b5090506200060c919062000610565b5090565b5b808211156200062b57600081600090555060010162000611565b5090565b6000604051905090565b600080fd5b600080fd5b600080fd5b6000601f19601f8301169050919050565b7f4e487b7100000000000000000000000000000000000000000000000000000000600052604160045260246000fd5b620006938262000648565b810181811067ffffffffffffffff82111715620006b557620006b462000659565b5b80604052505050565b6000620006ca6200062f565b9050620006d8828262000688565b919050565b600067ffffffffffffffff821115620006fb57620006fa62000659565b5b602082029050602081019050919050565b600080fd5b600080fd5b600067ffffffffffffffff82111562000734576200073362000659565b5b6200073f8262000648565b9050602081019050919050565b60005b838110156200076c5780820151818401526020810190506200074f565b60008484015250505050565b60006200078f620007898462000716565b620006be565b905082815260208101848484011115620007ae57620007ad62000711565b5b620007bb8482856200074c565b509392505050565b600082601f830112620007db57620007da62000643565b5b8151620007ed84826020860162000778565b91505092915050565b60006200080d6200080784620006dd565b620006be565b905080838252602082019050602084028301858111156200083357620008326200070c565b5b835b818110156200088157805167ffffffffffffffff8111156200085c576200085b62000643565b5b8086016200086b8982620007c3565b8552602085019450505060208101905062000835565b5050509392505050565b600082601f830112620008a357620008a262000643565b5b8151620008b5848260208601620007f6565b91505092915050565b600060208284031215620008d757620008d662000639565b5b600082015167ffffffffffffffff811115620008f857620008f76200063e565b5b62000906848285016200088b565b91505092915050565b7f4e487b7100000000000000000000000000000000000000000000000000000000600052603260045260246000fd5b600081519050919050565b7f4e487b7100000000000000000000000000000000000000000000000000000000600052602260045260246000fd5b600060028204905060018216806200099157607f821691505b602082108103620009a757620009a662000949565b5b50919050565b60008190508160005260206000209050919050565b60006020601f8301049050919050565b600082821b905092915050565b60006008830262000a117fffffffffffffffffffffffffffffffffffffffffffffffffffffffffffffffff82620009d2565b62000a1d8683620009d2565b95508019841693508086168417925050509392505050565b6000819050919050565b6000819050919050565b600062000a6a62000a6462000a5e8462000a35565b62000a3f565b62000a35565b9050919050565b6000819050919050565b62000a868362000a49565b62000a9e62000a958262000a71565b848454620009df565b825550505050565b600090565b62000ab562000aa6565b62000ac281848462000a7b565b505050565b5b8181101562000aea5762000ade60008262000aab565b60018101905062000ac8565b5050565b601f82111562000b395762000b0381620009ad565b62000b0e84620009c2565b8101602085101562000b1e578190505b62000b3662000b2d85620009c2565b83018262000ac7565b50505b505050565b600082821c905092915050565b600062000b5e6000198460080262000b3e565b1980831691505092915050565b600062000b79838362000b4b565b9150826002028217905092915050565b62000b94826200093e565b67ffffffffffffffff81111562000bb05762000baf62000659565b5b62000bbc825462000978565b62000bc982828562000aee565b600060209050601f83116001811462000c01576000841562000bec578287015190505b62000bf8858262000b6b565b86555062000c68565b601f19841662000c1186620009ad565b60005b8281101562000c3b5784890151825560018201915060208501945060208101905062000c14565b8683101562000c5b578489015162000c57601f89168262000b4b565b8355505b6001600288020188555050505b505050505050565b7f4e487b7100000000000000000000000000000000000000000000000000000000600052601160045260246000fd5b600062000cac8262000a35565b91507fffffffffffffffffffffffffffffffffffffffffffffffffffffffffffffffff820362000ce15762000ce062000c70565b5b600182019050919050565b600082825260208201905092915050565b7f4f6e6c79206f776e65722063616e206769766520726967687420746f20766f7460008201527f652e000000000000000000000000000000000000000000000000000000000000602082015250565b600062000d5b60228362000cec565b915062000d688262000cfd565b604082019050919050565b6000602082019050818103600083015262000d8e8162000d4c565b9050919050565b61189a8062000da56000396000f3fe608060405234801561001057600080fd5b506004361061010b5760003560e01c80638da5cb5b116100a2578063c51e536f11610071578063c51e536f1461029b578063c7227f73146102b9578063db5e9da5146102d7578063ded9468814610307578063dfbf53ae146103255761010b565b80638da5cb5b146102115780639e7b8d611461022f578063ae66d4f41461024b578063b56899cf1461027d5761010b565b8063595fa5d7116100de578063595fa5d71461019a57806359f78468146101bb57806365c93769146101c5578063685a9dd8146101f55761010b565b80630121b93f14610110578063122902a61461012c5780632d35a8a21461014a5780633477ee2e14610168575b600080fd5b61012a60048036038101906101259190610e25565b610347565b005b6101346104c0565b6040516101419190610e6d565b60405180910390f35b6101526104d7565b60405161015f9190610e97565b60405180910390f35b610182600480360381019061017d9190610e25565b6104dd565b60405161019193929190610f42565b60405180910390f35b6101a261059f565b6040516101b29493929190610f80565b60405180910390f35b6101c36106a8565b005b6101df60048036038101906101da919061102a565b61085f565b6040516101ec9190610e6d565b60405180910390f35b61020f600480360381019061020a919061102a565b61092f565b005b610219610a1d565b6040516102269190611066565b60405180910390f35b6102496004803603810190610244919061102a565b610a43565b005b6102656004803603810190610260919061102a565b610b31565b60405161027493929190611081565b60405180910390f35b610285610b75565b6040516102929190610e97565b60405180910390f35b6102a3610b7f565b6040516102b09190610e97565b60405180910390f35b6102c1610b85565b6040516102ce91906111c4565b60405180910390f35b6102f160048036038101906102ec9190610e25565b610cd5565b6040516102fe9190611066565b60405180910390f35b61030f610d14565b60405161031c9190611066565b60405180910390f35b61032d610d3e565b60405161033e9594939291906111e6565b60405180910390f35b6000600a60003373ffffffffffffffffffffffffffffffffffffffff1673ffffffffffffffffffffffffffffffffffffffff16815260200190815260200160002090508060000160009054906101000a900460ff166103db576040517f08c379a00000000000000000000000000000000000000000000000000000000081526004016103d29061128c565b60405180910390fd5b8060000160019054906101000a900460ff161561042d576040517f08c379a0000000000000000000000000000000000000000000000000000000008152600401610424906112f8565b60405180910390fd5b60018160000160016101000a81548160ff021916908315150217905550818160010181905550600180838154811061046857610467611318565b5b906000526020600020906003020160020160008282546104889190611376565b92505081905550817ffff3c900d938d21d0990d786e819f29b8d05c1ef587b462b939609625b684b1660405160405180910390a25050565b6000600760149054906101000a900460ff16905090565b60095481565b600181815481106104ed57600080fd5b9060005260206000209060030201600091509050806000015490806001018054610516906113d9565b80601f0160208091040260200160405190810160405280929190818152602001828054610542906113d9565b801561058f5780601f106105645761010080835404028352916020019161058f565b820191906000526020600020905b81548152906001019060200180831161057257829003601f168201915b5050505050908060020154905083565b60606000806000801515600760149054906101000a900460ff161515146105fb576040517f08c379a00000000000000000000000000000000000000000000000000000000081526004016105f29061147c565b60405180910390fd5b6002600101805461060b906113d9565b80601f0160208091040260200160405190810160405280929190818152602001828054610637906113d9565b80156106845780601f1061065957610100808354040283529160200191610684565b820191906000526020600020905b81548152906001019060200180831161066757829003601f168201915b50505050509350600280015492506002600301549150600260040154905090919293565b600760009054906101000a900473ffffffffffffffffffffffffffffffffffffffff1673ffffffffffffffffffffffffffffffffffffffff163373ffffffffffffffffffffffffffffffffffffffff1614610738576040517f08c379a000000000000000000000000000000000000000000000000000000000815260040161072f9061150e565b60405180910390fd5b6000600760146101000a81548160ff02191690831515021790555060008080600090505b6001805490508110156107d557826001828154811061077e5761077d611318565b5b90600052602060002090600302016002015411156107c257600181815481106107aa576107a9611318565b5b90600052602060002090600302016002015492508091505b80806107cd9061152e565b91505061075c565b50600181815481106107ea576107e9611318565b5b9060005260206000209060030201600001546002600001819055506001818154811061081957610818611318565b5b90600052602060002090600302016001016002600101908161083b919061177c565b50816002800181905550600854600260030181905550426002600401819055505050565b600060011515600a60008473ffffffffffffffffffffffffffffffffffffffff1673ffffffffffffffffffffffffffffffffffffffff16815260200190815260200160002060000160009054906101000a900460ff161515148015610917575060001515600a60008473ffffffffffffffffffffffffffffffffffffffff1673ffffffffffffffffffffffffffffffffffffffff16815260200190815260200160002060000160019054906101000a900460ff161515145b15610925576001905061092a565b600090505b919050565b600760009054906101000a900473ffffffffffffffffffffffffffffffffffffffff1673ffffffffffffffffffffffffffffffffffffffff163373ffffffffffffffffffffffffffffffffffffffff16146109bf576040517f08c379a00000000000000000000000000000000000000000000000000000000081526004016109b69061150e565b60405180910390fd5b6000600a60008373ffffffffffffffffffffffffffffffffffffffff1673ffffffffffffffffffffffffffffffffffffffff16815260200190815260200160002060000160006101000a81548160ff02191690831515021790555050565b600760009054906101000a900473ffffffffffffffffffffffffffffffffffffffff1681565b600760009054906101000a900473ffffffffffffffffffffffffffffffffffffffff1673ffffffffffffffffffffffffffffffffffffffff163373ffffffffffffffffffffffffffffffffffffffff1614610ad3576040517f08c379a0000000000000000000000000000000000000000000000000000000008152600401610aca9061150e565b60405180910390fd5b6001600a60008373ffffffffffffffffffffffffffffffffffffffff1673ffffffffffffffffffffffffffffffffffffffff16815260200190815260200160002060000160006101000a81548160ff02191690831515021790555050565b600a6020528060005260406000206000915090508060000160009054906101000a900460ff16908060000160019054906101000a900460ff16908060010154905083565b6000600954905090565b60085481565b6060600060018054905067ffffffffffffffff811115610ba857610ba761158c565b5b604051908082528060200260200182016040528015610bdb57816020015b6060815260200190600190039081610bc65790505b50905060005b600180549050811015610ccd5760018181548110610c0257610c01611318565b5b90600052602060002090600302016001018054610c1e906113d9565b80601f0160208091040260200160405190810160405280929190818152602001828054610c4a906113d9565b8015610c975780601f10610c6c57610100808354040283529160200191610c97565b820191906000526020600020905b815481529060010190602001808311610c7a57829003601f168201915b5050505050828281518110610caf57610cae611318565b5b60200260200101819052508080610cc59061152e565b915050610be1565b508091505090565b60008181548110610ce557600080fd5b906000526020600020016000915054906101000a900473ffffffffffffffffffffffffffffffffffffffff1681565b6000600760009054906101000a900473ffffffffffffffffffffffffffffffffffffffff16905090565b6002806000015490806001018054610d55906113d9565b80601f0160208091040260200160405190810160405280929190818152602001828054610d81906113d9565b8015610dce5780601f10610da357610100808354040283529160200191610dce565b820191906000526020600020905b815481529060010190602001808311610db157829003601f168201915b5050505050908060020154908060030154908060040154905085565b600080fd5b6000819050919050565b610e0281610def565b8114610e0d57600080fd5b50565b600081359050610e1f81610df9565b92915050565b600060208284031215610e3b57610e3a610dea565b5b6000610e4984828501610e10565b91505092915050565b60008115159050919050565b610e6781610e52565b82525050565b6000602082019050610e826000830184610e5e565b92915050565b610e9181610def565b82525050565b6000602082019050610eac6000830184610e88565b92915050565b600081519050919050565b600082825260208201905092915050565b60005b83811015610eec578082015181840152602081019050610ed1565b60008484015250505050565b6000601f19601f8301169050919050565b6000610f1482610eb2565b610f1e8185610ebd565b9350610f2e818560208601610ece565b610f3781610ef8565b840191505092915050565b6000606082019050610f576000830186610e88565b8181036020830152610f698185610f09565b9050610f786040830184610e88565b949350505050565b60006080820190508181036000830152610f9a8187610f09565b9050610fa96020830186610e88565b610fb66040830185610e88565b610fc36060830184610e88565b95945050505050565b600073ffffffffffffffffffffffffffffffffffffffff82169050919050565b6000610ff782610fcc565b9050919050565b61100781610fec565b811461101257600080fd5b50565b60008135905061102481610ffe565b92915050565b6000602082840312156110405761103f610dea565b5b600061104e84828501611015565b91505092915050565b61106081610fec565b82525050565b600060208201905061107b6000830184611057565b92915050565b60006060820190506110966000830186610e5e565b6110a36020830185610e5e565b6110b06040830184610e88565b949350505050565b600081519050919050565b600082825260208201905092915050565b6000819050602082019050919050565b600082825260208201905092915050565b600061110082610eb2565b61110a81856110e4565b935061111a818560208601610ece565b61112381610ef8565b840191505092915050565b600061113a83836110f5565b905092915050565b6000602082019050919050565b600061115a826110b8565b61116481856110c3565b935083602082028501611176856110d4565b8060005b858110156111b25784840389528151611193858261112e565b945061119e83611142565b925060208a0199505060018101905061117a565b50829750879550505050505092915050565b600060208201905081810360008301526111de818461114f565b905092915050565b600060a0820190506111fb6000830188610e88565b818103602083015261120d8187610f09565b905061121c6040830186610e88565b6112296060830185610e88565b6112366080830184610e88565b9695505050505050565b7f486173206e6f20726967687420746f20766f7465000000000000000000000000600082015250565b6000611276601483610ebd565b915061128182611240565b602082019050919050565b600060208201905081810360008301526112a581611269565b9050919050565b7f416c726561647920766f7465642e000000000000000000000000000000000000600082015250565b60006112e2600e83610ebd565b91506112ed826112ac565b602082019050919050565b60006020820190508181036000830152611311816112d5565b9050919050565b7f4e487b7100000000000000000000000000000000000000000000000000000000600052603260045260246000fd5b7f4e487b7100000000000000000000000000000000000000000000000000000000600052601160045260246000fd5b600061138182610def565b915061138c83610def565b92508282019050808211156113a4576113a3611347565b5b92915050565b7f4e487b7100000000000000000000000000000000000000000000000000000000600052602260045260246000fd5b600060028204905060018216806113f157607f821691505b602082108103611404576114036113aa565b5b50919050565b7f43616e2774206465636c6172652077696e6e6572207768696c6520656c65637460008201527f696f6e732061726520696e2070726f6772657373000000000000000000000000602082015250565b6000611466603483610ebd565b91506114718261140a565b604082019050919050565b6000602082019050818103600083015261149581611459565b9050919050565b7f4f6e6c79206f776e65722063616e206769766520726967687420746f20766f7460008201527f652e000000000000000000000000000000000000000000000000000000000000602082015250565b60006114f8602283610ebd565b91506115038261149c565b604082019050919050565b60006020820190508181036000830152611527816114eb565b9050919050565b600061153982610def565b91507fffffffffffffffffffffffffffffffffffffffffffffffffffffffffffffffff820361156b5761156a611347565b5b600182019050919050565b600081549050611585816113d9565b9050919050565b7f4e487b7100000000000000000000000000000000000000000000000000000000600052604160045260246000fd5b60008190508160005260206000209050919050565b60008190508160005260206000209050919050565b60006020601f8301049050919050565b600082821b905092915050565b6000600883026116327fffffffffffffffffffffffffffffffffffffffffffffffffffffffffffffffff826115f5565b61163c86836115f5565b95508019841693508086168417925050509392505050565b6000819050919050565b600061167961167461166f84610def565b611654565b610def565b9050919050565b6000819050919050565b6116938361165e565b6116a761169f82611680565b848454611602565b825550505050565b600090565b6116bc6116af565b6116c781848461168a565b505050565b5b818110156116eb576116e06000826116b4565b6001810190506116cd565b5050565b601f82111561173057611701816115bb565b61170a846115e5565b81016020851015611719578190505b61172d611725856115e5565b8301826116cc565b50505b505050565b600082821c905092915050565b600061175360001984600802611735565b1980831691505092915050565b600061176c8383611742565b9150826002028217905092915050565b81810361178a575050611862565b61179382611576565b67ffffffffffffffff8111156117ac576117ab61158c565b5b6117b682546113d9565b6117c18282856116ef565b6000601f8311600181146117f057600084156117de578287015490505b6117e88582611760565b86555061185b565b601f1984166117fe876115d0565b9650611809866115bb565b60005b828110156118315784890154825560018201915060018501945060208101905061180c565b8683101561184e578489015461184a601f891682611742565b8355505b6001600288020188555050505b5050505050505b56fea264697066735822122045893eeaaa1f091fe55f7d302fa0d80ecd658a93d7a2b2b88d0f74a03131e52f64736f6c63430008130033",
  "immutableReferences": {},
  "source": "// SPDX-License-Identifier: MIT\r\npragma solidity ^0.8.19;\r\n\r\ncontract Elections {\r\n\r\n    address[] public defaultVoters = [\r\n        0xE2396BbdF71077684e5FbF051a6E431cC135e28A,\r\n        0x22Fc4173D0ada02926138994d13D161113eE4a39,\r\n        0x55fE80891495223deba5E2603BB24FACd6494a72,\r\n        0x1f96B9704c0EDB5c6490d93713bd62d2c9A967cd,\r\n        0xE1A1bDd16fCbEf19F83db908eaC052ABe2DB0cA9,\r\n        0x1b33c03D5f880d3CDa8Ba91a772A9E8e5DBa36A0,\r\n        0xf924e3eAA33965C47a116ca68EA93ca105385a3c,\r\n        0xd2AFb069F61Cf099BfD0Dd9f8140AE18bAB658c9,\r\n        0x079d12076e79Ba335da5D8999Df747C5a1f09CaC\r\n    ];\r\n\r\n    struct Voter {\r\n        bool eligibleToVote; \r\n        bool voted;  \r\n        uint votedCandidate; \r\n    }\r\n\r\n    struct Proposal { \r\n        uint id;\r\n        string name; \r\n        uint voteCount;\r\n    }\r\n\r\n    struct Winner {\r\n        uint id;\r\n        string name; \r\n        uint voteCount;\r\n        uint256 startOfElection;\r\n        uint256 endOfElection;\r\n    }\r\n\r\n    event votedEvent (\r\n        uint indexed _candidateId\r\n    );\r\n\r\n    Proposal[] public candidates;\r\n    Winner public winner;\r\n\r\n    address public owner;\r\n    bool electionInProgress;\r\n    uint256 public startOfElection;\r\n    uint public candidatesCount;\r\n\r\n    mapping(address => Voter) public votersMap;\r\n\r\n    modifier onlyOwner() {\r\n        require(msg.sender == owner, \"Only owner can give right to vote.\");\r\n        _;\r\n    }\r\n\r\n    constructor(string[] memory candidateNames) {\r\n        owner = msg.sender;\r\n        electionInProgress = true;\r\n\r\n        for (uint i = 0; i < candidateNames.length; i++) {\r\n            candidates.push(Proposal({\r\n                id: i,\r\n                name: candidateNames[i],\r\n                voteCount: 0\r\n            }));\r\n\r\n            candidatesCount ++;\r\n        }\r\n\r\n        startOfElection = block.timestamp;\r\n        giveVotingRightsToDefaultAddresses();\r\n    }\r\n\r\n    function showOwner() public view returns (address) {\r\n        return owner;\r\n    }\r\n\r\n    function showCandidateCounts() public view returns (uint256) {\r\n        return candidatesCount;\r\n    }\r\n\r\n    function showCandidateNames() external view returns (string[] memory) {\r\n        string[] memory candidateNames = new string[](candidates.length);\r\n\r\n        for (uint256 i = 0; i < candidates.length; i++) {\r\n            candidateNames[i] = candidates[i].name;\r\n        }\r\n\r\n        return candidateNames;\r\n    }\r\n\r\n    function giveVotingRightsToDefaultAddresses() internal {\r\n        for (uint256 i = 0; i < defaultVoters.length; i++) {\r\n            giveRightToVote(defaultVoters[i]);\r\n        }\r\n    }\r\n\r\n    function giveRightToVote(address voter) public onlyOwner {\r\n        votersMap[voter].eligibleToVote = true;\r\n    }\r\n\r\n    function removeRightToVote(address voter) public onlyOwner {\r\n        votersMap[voter].eligibleToVote = false;\r\n    }\r\n\r\n    function hasRightToVote(address voter) public view returns (bool) {\r\n        if (votersMap[voter].eligibleToVote == true && votersMap[voter].voted == false) {\r\n            return true;\r\n        } else {\r\n            return false;\r\n        }\r\n    }\r\n\r\n    function vote(uint proposal) public {\r\n        Voter storage sender = votersMap[msg.sender];\r\n        require(sender.eligibleToVote, \"Has no right to vote\");\r\n        require(!sender.voted, \"Already voted.\");\r\n        sender.voted = true;\r\n        sender.votedCandidate = proposal;\r\n\r\n        candidates[proposal].voteCount += 1;\r\n\r\n        emit votedEvent(proposal);\r\n    }\r\n    \r\n    function endElection() public onlyOwner {\r\n        electionInProgress = false;\r\n\r\n        uint winningVoteCount = 0;\r\n        uint winningCandidateId;\r\n\r\n        for (uint i = 0; i < candidates.length; i++) {\r\n            if (candidates[i].voteCount > winningVoteCount) {\r\n                winningVoteCount = candidates[i].voteCount;\r\n                winningCandidateId = i;\r\n            }\r\n        }\r\n\r\n        // Set the winner details and timestamp\r\n        winner.id = candidates[winningCandidateId].id;\r\n        winner.name = candidates[winningCandidateId].name;\r\n        winner.voteCount = winningVoteCount;\r\n        winner.startOfElection = startOfElection;\r\n        winner.endOfElection = block.timestamp;\r\n    }\r\n\r\n    function getElectionStatus() public view returns (bool) {\r\n        return electionInProgress;\r\n    }\r\n\r\n    function displayWinner() public view\r\n            returns (string memory winnerName_, uint winningVoteCount_, uint256 startOfElection_, uint256 endOfElection_)\r\n    {\r\n        require(electionInProgress == false, \"Can't declare winner while elections are in progress\");\r\n        winnerName_ = winner.name;\r\n        winningVoteCount_ = winner.voteCount;\r\n        startOfElection_ = winner.startOfElection;\r\n        endOfElection_ = winner.endOfElection;\r\n    }\r\n}\r\n",
  "sourcePath": "C:\\Users\\filip\\Desktop\\Voting-Dapp\\contracts\\Elections.sol",
  "compiler": {
    "name": "solc",
    "version": "0.8.19+commit.7dd6d404.Emscripten.clang"
  },
  "schemaVersion": "3.4.16",
  "updatedAt": "2024-01-15T20:00:24.772Z",
  "networkType": "ethereum",
  "devdoc": {
    "kind": "dev",
    "methods": {},
    "version": 1
  },
  "userdoc": {
    "kind": "user",
    "methods": {},
    "version": 1
  }
}